{
  "contractName": "Adjuster",
  "abi": [
    {
      "constant": true,
      "inputs": [
        {
          "internalType": "uint256",
          "name": "",
          "type": "uint256"
        }
      ],
      "name": "SubrogationT",
      "outputs": [
        {
          "internalType": "string",
          "name": "name",
          "type": "string"
        },
        {
          "internalType": "string",
          "name": "date",
          "type": "string"
        },
        {
          "internalType": "uint256",
          "name": "amount",
          "type": "uint256"
        },
        {
          "internalType": "address",
          "name": "from",
          "type": "address"
        },
        {
          "internalType": "address",
          "name": "to",
          "type": "address"
        },
        {
          "internalType": "string",
          "name": "Police_Report_IPFS",
          "type": "string"
        },
        {
          "internalType": "string",
          "name": "status",
          "type": "string"
        },
        {
          "internalType": "bool",
          "name": "report_status",
          "type": "bool"
        },
        {
          "internalType": "bool",
          "name": "state",
          "type": "bool"
        }
      ],
      "payable": false,
      "stateMutability": "view",
      "type": "function"
    },
    {
      "constant": true,
      "inputs": [],
      "name": "no_of_SubClaims_In",
      "outputs": [
        {
          "internalType": "uint256",
          "name": "",
          "type": "uint256"
        }
      ],
      "payable": false,
      "stateMutability": "view",
      "type": "function"
    },
    {
      "constant": true,
      "inputs": [],
      "name": "x",
      "outputs": [
        {
          "internalType": "contract Claim",
          "name": "",
          "type": "address"
        }
      ],
      "payable": false,
      "stateMutability": "view",
      "type": "function"
    },
    {
      "constant": false,
      "inputs": [
        {
          "internalType": "address",
          "name": "y",
          "type": "address"
        }
      ],
      "name": "add_policy",
      "outputs": [],
      "payable": false,
      "stateMutability": "nonpayable",
      "type": "function"
    },
    {
      "constant": false,
      "inputs": [
        {
          "internalType": "uint256",
          "name": "insured",
          "type": "uint256"
        },
        {
          "internalType": "uint256",
          "name": "policy_id",
          "type": "uint256"
        },
        {
          "internalType": "string",
          "name": "date",
          "type": "string"
        }
      ],
      "name": "create_claim",
      "outputs": [],
      "payable": false,
      "stateMutability": "nonpayable",
      "type": "function"
    },
    {
      "constant": false,
      "inputs": [
        {
          "internalType": "string",
          "name": "Name",
          "type": "string"
        },
        {
          "internalType": "string",
          "name": "Date",
          "type": "string"
        },
        {
          "internalType": "uint256",
          "name": "Amount",
          "type": "uint256"
        },
        {
          "internalType": "address",
          "name": "From",
          "type": "address"
        },
        {
          "internalType": "address",
          "name": "To",
          "type": "address"
        },
        {
          "internalType": "string",
          "name": "report",
          "type": "string"
        }
      ],
      "name": "recieve_subrogation",
      "outputs": [],
      "payable": false,
      "stateMutability": "nonpayable",
      "type": "function"
    },
    {
      "constant": true,
      "inputs": [
        {
          "internalType": "uint256",
          "name": "ID",
          "type": "uint256"
        }
      ],
      "name": "show_report",
      "outputs": [
        {
          "internalType": "string",
          "name": "",
          "type": "string"
        }
      ],
      "payable": false,
      "stateMutability": "view",
      "type": "function"
    },
    {
      "constant": false,
      "inputs": [
        {
          "internalType": "uint256",
          "name": "ID",
          "type": "uint256"
        }
      ],
      "name": "Report_checked",
      "outputs": [],
      "payable": false,
      "stateMutability": "nonpayable",
      "type": "function"
    },
    {
      "constant": true,
      "inputs": [
        {
          "internalType": "uint256",
          "name": "ID",
          "type": "uint256"
        }
      ],
      "name": "Report_check",
      "outputs": [
        {
          "internalType": "bool",
          "name": "",
          "type": "bool"
        }
      ],
      "payable": false,
      "stateMutability": "view",
      "type": "function"
    },
    {
      "constant": false,
      "inputs": [
        {
          "internalType": "uint256",
          "name": "ID",
          "type": "uint256"
        }
      ],
      "name": "accept_subrogation",
      "outputs": [],
      "payable": false,
      "stateMutability": "nonpayable",
      "type": "function"
    },
    {
      "constant": true,
      "inputs": [],
      "name": "claim_address",
      "outputs": [
        {
          "internalType": "contract Claim",
          "name": "",
          "type": "address"
        }
      ],
      "payable": false,
      "stateMutability": "view",
      "type": "function"
    }
  ],
  "bytecode": "0x6080604052600060025534801561001557600080fd5b50612790806100256000396000f3fe60806040523480156200001157600080fd5b5060043610620000b85760003560e01c80639758cca5116200007b5780639758cca514620006e3578063b071b6c51462000790578063b0a1384314620007dc578063de604195146200080d578063decf35fc146200082d578063f1066fcf146200085e57620000b8565b80630c55699c14620000bd57806313768f5b14620001095780631751e47c14620001525780632f47548814620002275780636264d6731462000466575b600080fd5b620000c7620008a5565b604051808273ffffffffffffffffffffffffffffffffffffffff1673ffffffffffffffffffffffffffffffffffffffff16815260200191505060405180910390f35b62000138600480360360208110156200012157600080fd5b8101908080359060200190929190505050620008ca565b604051808215151515815260200191505060405180910390f35b62000225600480360360608110156200016a57600080fd5b810190808035906020019092919080359060200190929190803590602001906401000000008111156200019c57600080fd5b820183602082011115620001af57600080fd5b80359060200191846001830284011164010000000083111715620001d257600080fd5b91908080601f016020809104026020016040519081016040528093929190818152602001838380828437600081840152601f19601f820116905080830192505050505050509192919290505050620008f7565b005b62000464600480360360c08110156200023f57600080fd5b81019080803590602001906401000000008111156200025d57600080fd5b8201836020820111156200027057600080fd5b803590602001918460018302840111640100000000831117156200029357600080fd5b91908080601f016020809104026020016040519081016040528093929190818152602001838380828437600081840152601f19601f82011690508083019250505050505050919291929080359060200190640100000000811115620002f757600080fd5b8201836020820111156200030a57600080fd5b803590602001918460018302840111640100000000831117156200032d57600080fd5b91908080601f016020809104026020016040519081016040528093929190818152602001838380828437600081840152601f19601f82011690508083019250505050505050919291929080359060200190929190803573ffffffffffffffffffffffffffffffffffffffff169060200190929190803573ffffffffffffffffffffffffffffffffffffffff16906020019092919080359060200190640100000000811115620003db57600080fd5b820183602082011115620003ee57600080fd5b803590602001918460018302840111640100000000831117156200041157600080fd5b91908080601f016020809104026020016040519081016040528093929190818152602001838380828437600081840152601f19601f82011690508083019250505050505050919291929050505062000ae4565b005b62000495600480360360208110156200047e57600080fd5b810190808035906020019092919050505062000d60565b6040518080602001806020018a81526020018973ffffffffffffffffffffffffffffffffffffffff1673ffffffffffffffffffffffffffffffffffffffff1681526020018873ffffffffffffffffffffffffffffffffffffffff1673ffffffffffffffffffffffffffffffffffffffff1681526020018060200180602001871515151581526020018615151515815260200185810385528e818151815260200191508051906020019080838360005b838110156200056157808201518184015260208101905062000544565b50505050905090810190601f1680156200058f5780820380516001836020036101000a031916815260200191505b5085810384528d818151815260200191508051906020019080838360005b83811015620005ca578082015181840152602081019050620005ad565b50505050905090810190601f168015620005f85780820380516001836020036101000a031916815260200191505b50858103835289818151815260200191508051906020019080838360005b838110156200063357808201518184015260208101905062000616565b50505050905090810190601f168015620006615780820380516001836020036101000a031916815260200191505b50858103825288818151815260200191508051906020019080838360005b838110156200069c5780820151818401526020810190506200067f565b50505050905090810190601f168015620006ca5780820380516001836020036101000a031916815260200191505b509d505050505050505050505050505060405180910390f35b6200071260048036036020811015620006fb57600080fd5b810190808035906020019092919050505062001078565b6040518080602001828103825283818151815260200191508051906020019080838360005b838110156200075457808201518184015260208101905062000737565b50505050905090810190601f168015620007825780820380516001836020036101000a031916815260200191505b509250505060405180910390f35b6200079a62001134565b604051808273ffffffffffffffffffffffffffffffffffffffff1673ffffffffffffffffffffffffffffffffffffffff16815260200191505060405180910390f35b6200080b60048036036020811015620007f457600080fd5b81019080803590602001909291905050506200115d565b005b62000817620011f1565b6040518082815260200191505060405180910390f35b6200085c600480360360208110156200084557600080fd5b8101908080359060200190929190505050620011f7565b005b620008a3600480360360208110156200087657600080fd5b81019080803573ffffffffffffffffffffffffffffffffffffffff16906020019092919050505062001229565b005b6000809054906101000a900473ffffffffffffffffffffffffffffffffffffffff1681565b60006003600083815260200190815260200160002060070160009054906101000a900460ff169050919050565b6000600160009054906101000a900473ffffffffffffffffffffffffffffffffffffffff1690508073ffffffffffffffffffffffffffffffffffffffff16634a9a187385856040518363ffffffff1660e01b8152600401808381526020018281526020019250505060206040518083038186803b1580156200097857600080fd5b505afa1580156200098d573d6000803e3d6000fd5b505050506040513d6020811015620009a457600080fd5b81019080805190602001909291905050501562000ade5783838333604051620009cd906200126d565b80858152602001848152602001806020018373ffffffffffffffffffffffffffffffffffffffff1673ffffffffffffffffffffffffffffffffffffffff168152602001828103825284818151815260200191508051906020019080838360005b8381101562000a4a57808201518184015260208101905062000a2d565b50505050905090810190601f16801562000a785780820380516001836020036101000a031916815260200191505b5095505050505050604051809103906000f08015801562000a9d573d6000803e3d6000fd5b506000806101000a81548173ffffffffffffffffffffffffffffffffffffffff021916908373ffffffffffffffffffffffffffffffffffffffff1602179055505b50505050565b600260008154809291906001019190505550600360006002548152602001908152602001600020600801600254908060018154018082558091505090600182039060005260206000200160009091929091909150555085600360006002548152602001908152602001600020600001908051906020019062000b689291906200127b565b5084600360006002548152602001908152602001600020600101908051906020019062000b979291906200127b565b5083600360006002548152602001908152602001600020600201819055508260036000600254815260200190815260200160002060030160006101000a81548173ffffffffffffffffffffffffffffffffffffffff021916908373ffffffffffffffffffffffffffffffffffffffff1602179055508160036000600254815260200190815260200160002060040160006101000a81548173ffffffffffffffffffffffffffffffffffffffff021916908373ffffffffffffffffffffffffffffffffffffffff16021790555080600360006002548152602001908152602001600020600501908051906020019062000c919291906200127b565b50600060036000600254815260200190815260200160002060070160016101000a81548160ff021916908315150217905550600060036000600254815260200190815260200160002060070160006101000a81548160ff0219169083151502179055506040518060400160405280601881526020017f636c61696d205472616e7366657272656420746f205349550000000000000000815250600360006002548152602001908152602001600020600601908051906020019062000d579291906200127b565b50505050505050565b6003602052806000526040600020600091509050806000018054600181600116156101000203166002900480601f01602080910402602001604051908101604052809291908181526020018280546001816001161561010002031660029004801562000e105780601f1062000de45761010080835404028352916020019162000e10565b820191906000526020600020905b81548152906001019060200180831162000df257829003601f168201915b505050505090806001018054600181600116156101000203166002900480601f01602080910402602001604051908101604052809291908181526020018280546001816001161561010002031660029004801562000eb25780601f1062000e865761010080835404028352916020019162000eb2565b820191906000526020600020905b81548152906001019060200180831162000e9457829003601f168201915b5050505050908060020154908060030160009054906101000a900473ffffffffffffffffffffffffffffffffffffffff16908060040160009054906101000a900473ffffffffffffffffffffffffffffffffffffffff1690806005018054600181600116156101000203166002900480601f01602080910402602001604051908101604052809291908181526020018280546001816001161561010002031660029004801562000fa65780601f1062000f7a5761010080835404028352916020019162000fa6565b820191906000526020600020905b81548152906001019060200180831162000f8857829003601f168201915b505050505090806006018054600181600116156101000203166002900480601f016020809104026020016040519081016040528092919081815260200182805460018160011615610100020316600290048015620010485780601f106200101c5761010080835404028352916020019162001048565b820191906000526020600020905b8154815290600101906020018083116200102a57829003601f168201915b5050505050908060070160009054906101000a900460ff16908060070160019054906101000a900460ff16905089565b6060600360008381526020019081526020016000206005018054600181600116156101000203166002900480601f016020809104026020016040519081016040528092919081815260200182805460018160011615610100020316600290048015620011285780601f10620010fc5761010080835404028352916020019162001128565b820191906000526020600020905b8154815290600101906020018083116200110a57829003601f168201915b50505050509050919050565b60008060009054906101000a900473ffffffffffffffffffffffffffffffffffffffff16905090565b60016003600083815260200190815260200160002060070160016101000a81548160ff0219169083151502179055506040518060400160405280600881526020017f4163636570746564000000000000000000000000000000000000000000000000815250600360008381526020019081526020016000206006019080519060200190620011ed9291906200127b565b5050565b60025481565b60016003600083815260200190815260200160002060070160006101000a81548160ff02191690831515021790555050565b80600160006101000a81548173ffffffffffffffffffffffffffffffffffffffff021916908373ffffffffffffffffffffffffffffffffffffffff16021790555050565b611431806200132b83390190565b828054600181600116156101000203166002900490600052602060002090601f016020900481019282601f10620012be57805160ff1916838001178555620012ef565b82800160010185558215620012ef579182015b82811115620012ee578251825591602001919060010190620012d1565b5b509050620012fe919062001302565b5090565b6200132791905b808211156200132357600081600090555060010162001309565b5090565b9056fe6080604052600080553480156200001557600080fd5b506040516200143138038062001431833981810160405260808110156200003b57600080fd5b810190808051906020019092919080519060200190929190805160405193929190846401000000008211156200007057600080fd5b838201915060208201858111156200008757600080fd5b8251866001820283011164010000000082111715620000a557600080fd5b8083526020830192505050908051906020019080838360005b83811015620000db578082015181840152602081019050620000be565b50505050905090810190601f168015620001095780820380516001836020036101000a031916815260200191505b50604052602001805190602001909291905050506000808154809291906001019190505550836001600080548152602001908152602001600020600001819055508260016000805481526020019081526020016000206001018190555081600160008054815260200190815260200160002060020190805190602001906200019392919062000287565b5080600160008054815260200190815260200160002060030160006101000a81548173ffffffffffffffffffffffffffffffffffffffff021916908373ffffffffffffffffffffffffffffffffffffffff1602179055506040518060400160405280601281526020017f436c61696d277320526567697374657265640000000000000000000000000000815250600160008054815260200190815260200160002060040190805190602001906200024c92919062000287565b506000600160008054815260200190815260200160002060050160006101000a81548160ff0219169083151502179055505050505062000336565b828054600181600116156101000203166002900490600052602060002090601f016020900481019282601f10620002ca57805160ff1916838001178555620002fb565b82800160010185558215620002fb579182015b82811115620002fa578251825591602001919060010190620002dd565b5b5090506200030a91906200030e565b5090565b6200033391905b808211156200032f57600081600090555060010162000315565b5090565b90565b6110eb80620003466000396000f3fe608060405234801561001057600080fd5b50600436106100a95760003560e01c806394c4c7811161007157806394c4c7811461025b578063c44da96014610289578063c8fb7832146102f7578063c9889c8b1461039e578063dd246018146105f6578063dfb5578314610763576100a9565b80630cb9c23e146100ae5780632a31d6b5146100f0578063678a1534146101975780636db757991461020557806371c6230b1461023d575b600080fd5b6100da600480360360208110156100c457600080fd5b810190808035906020019092919050505061080a565b6040518082815260200191505060405180910390f35b61011c6004803603602081101561010657600080fd5b810190808035906020019092919050505061082a565b6040518080602001828103825283818151815260200191508051906020019080838360005b8381101561015c578082015181840152602081019050610141565b50505050905090810190601f1680156101895780820380516001836020036101000a031916815260200191505b509250505060405180910390f35b6101c3600480360360208110156101ad57600080fd5b81019080803590602001909291905050506108e2565b604051808273ffffffffffffffffffffffffffffffffffffffff1673ffffffffffffffffffffffffffffffffffffffff16815260200191505060405180910390f35b61023b6004803603604081101561021b57600080fd5b810190808035906020019092919080359060200190929190505050610922565b005b610245610941565b6040518082815260200191505060405180910390f35b6102876004803603602081101561027157600080fd5b8101908080359060200190929190505050610947565b005b6102b56004803603602081101561029f57600080fd5b8101908080359060200190929190505050610978565b604051808273ffffffffffffffffffffffffffffffffffffffff1673ffffffffffffffffffffffffffffffffffffffff16815260200191505060405180910390f35b6103236004803603602081101561030d57600080fd5b81019080803590602001909291905050506109b8565b6040518080602001828103825283818151815260200191508051906020019080838360005b83811015610363578082015181840152602081019050610348565b50505050905090810190601f1680156103905780820380516001836020036101000a031916815260200191505b509250505060405180910390f35b6103ca600480360360208110156103b457600080fd5b8101908080359060200190929190505050610a70565b6040518080602001806020018881526020018773ffffffffffffffffffffffffffffffffffffffff1673ffffffffffffffffffffffffffffffffffffffff1681526020018673ffffffffffffffffffffffffffffffffffffffff1673ffffffffffffffffffffffffffffffffffffffff168152602001806020018060200185810385528c818151815260200191508051906020019080838360005b83811015610480578082015181840152602081019050610465565b50505050905090810190601f1680156104ad5780820380516001836020036101000a031916815260200191505b5085810384528b818151815260200191508051906020019080838360005b838110156104e65780820151818401526020810190506104cb565b50505050905090810190601f1680156105135780820380516001836020036101000a031916815260200191505b50858103835287818151815260200191508051906020019080838360005b8381101561054c578082015181840152602081019050610531565b50505050905090810190601f1680156105795780820380516001836020036101000a031916815260200191505b50858103825286818151815260200191508051906020019080838360005b838110156105b2578082015181840152602081019050610597565b50505050905090810190601f1680156105df5780820380516001836020036101000a031916815260200191505b509b50505050505050505050505060405180910390f35b610761600480360360c081101561060c57600080fd5b81019080803590602001909291908035906020019064010000000081111561063357600080fd5b82018360208201111561064557600080fd5b8035906020019184600183028401116401000000008311171561066757600080fd5b90919293919293908035906020019064010000000081111561068857600080fd5b82018360208201111561069a57600080fd5b803590602001918460018302840111640100000000831117156106bc57600080fd5b9091929391929390803573ffffffffffffffffffffffffffffffffffffffff169060200190929190803573ffffffffffffffffffffffffffffffffffffffff1690602001909291908035906020019064010000000081111561071d57600080fd5b82018360208201111561072f57600080fd5b8035906020019184600183028401116401000000008311171561075157600080fd5b9091929391929390505050610d52565b005b61078f6004803603602081101561077957600080fd5b8101908080359060200190929190505050610ed9565b6040518080602001828103825283818151815260200191508051906020019080838360005b838110156107cf5780820151818401526020810190506107b4565b50505050905090810190601f1680156107fc5780820380516001836020036101000a031916815260200191505b509250505060405180910390f35b600060026000838152602001908152602001600020600201549050919050565b6060600260008381526020019081526020016000206005018054600181600116156101000203166002900480601f0160208091040260200160405190810160405280929190818152602001828054600181600116156101000203166002900480156108d65780601f106108ab576101008083540402835291602001916108d6565b820191906000526020600020905b8154815290600101906020018083116108b957829003601f168201915b50505050509050919050565b60006002600083815260200190815260200160002060030160009054906101000a900473ffffffffffffffffffffffffffffffffffffffff169050919050565b8060026000848152602001908152602001600020600201819055505050565b60005481565b600180600083815260200190815260200160002060050160006101000a81548160ff02191690831515021790555050565b60006002600083815260200190815260200160002060040160009054906101000a900473ffffffffffffffffffffffffffffffffffffffff169050919050565b6060600260008381526020019081526020016000206000018054600181600116156101000203166002900480601f016020809104026020016040519081016040528092919081815260200182805460018160011615610100020316600290048015610a645780601f10610a3957610100808354040283529160200191610a64565b820191906000526020600020905b815481529060010190602001808311610a4757829003601f168201915b50505050509050919050565b6002602052806000526040600020600091509050806000018054600181600116156101000203166002900480601f016020809104026020016040519081016040528092919081815260200182805460018160011615610100020316600290048015610b1c5780601f10610af157610100808354040283529160200191610b1c565b820191906000526020600020905b815481529060010190602001808311610aff57829003601f168201915b505050505090806001018054600181600116156101000203166002900480601f016020809104026020016040519081016040528092919081815260200182805460018160011615610100020316600290048015610bba5780601f10610b8f57610100808354040283529160200191610bba565b820191906000526020600020905b815481529060010190602001808311610b9d57829003601f168201915b5050505050908060020154908060030160009054906101000a900473ffffffffffffffffffffffffffffffffffffffff16908060040160009054906101000a900473ffffffffffffffffffffffffffffffffffffffff1690806005018054600181600116156101000203166002900480601f016020809104026020016040519081016040528092919081815260200182805460018160011615610100020316600290048015610caa5780601f10610c7f57610100808354040283529160200191610caa565b820191906000526020600020905b815481529060010190602001808311610c8d57829003601f168201915b505050505090806006018054600181600116156101000203166002900480601f016020809104026020016040519081016040528092919081815260200182805460018160011615610100020316600290048015610d485780601f10610d1d57610100808354040283529160200191610d48565b820191906000526020600020905b815481529060010190602001808311610d2b57829003601f168201915b5050505050905087565b8585600260008c81526020019081526020016000206000019190610d77929190610f91565b508787600260008c81526020019081526020016000206001019190610d9d929190610f91565b5083600260008b815260200190815260200160002060030160006101000a81548173ffffffffffffffffffffffffffffffffffffffff021916908373ffffffffffffffffffffffffffffffffffffffff16021790555082600260008b815260200190815260200160002060040160006101000a81548173ffffffffffffffffffffffffffffffffffffffff021916908373ffffffffffffffffffffffffffffffffffffffff1602179055508181600260008c81526020019081526020016000206005019190610e6d929190610f91565b506040518060400160405280600f81526020017f436c61696d20496e697469617465640000000000000000000000000000000000815250600260008b81526020019081526020016000206006019080519060200190610ecd929190611011565b50505050505050505050565b6060600260008381526020019081526020016000206001018054600181600116156101000203166002900480601f016020809104026020016040519081016040528092919081815260200182805460018160011615610100020316600290048015610f855780601f10610f5a57610100808354040283529160200191610f85565b820191906000526020600020905b815481529060010190602001808311610f6857829003601f168201915b50505050509050919050565b828054600181600116156101000203166002900490600052602060002090601f016020900481019282601f10610fd257803560ff1916838001178555611000565b82800160010185558215611000579182015b82811115610fff578235825591602001919060010190610fe4565b5b50905061100d9190611091565b5090565b828054600181600116156101000203166002900490600052602060002090601f016020900481019282601f1061105257805160ff1916838001178555611080565b82800160010185558215611080579182015b8281111561107f578251825591602001919060010190611064565b5b50905061108d9190611091565b5090565b6110b391905b808211156110af576000816000905550600101611097565b5090565b9056fea265627a7a723158202391d2413992ec9804f87692e8f8fd89197aba12ad96fc836cc92946c6ecf3af64736f6c63430005100032a265627a7a72315820fe3db8541edfc05c679771e33bf6db6e967e639b0ac37abbc35db6f2857f162464736f6c63430005100032",
  "source": "//make a claim for user\r\n//review claim\r\npragma solidity >=0.4.24;\r\nimport\"./Claim.sol\";\r\nimport\"./Policy.sol\";\r\ncontract Adjuster{\r\n    Claim public x;\r\n    address policy_add;\r\n    function add_policy(address y)public{\r\n    policy_add=y;\r\n    }\r\n  uint public no_of_SubClaims_In=0;\r\n\r\n    function create_claim(uint insured,uint policy_id,string memory date)public{\r\n     Policy use1 = Policy(policy_add);\r\n    if(use1.Policy_check(insured,policy_id))\r\n    {\r\n        x= new Claim(insured,policy_id,date,msg.sender);\r\n    }\r\n    }\r\n    struct sub_claim{\r\n        string name;\r\n        string date;\r\n        uint amount;\r\n        address from;\r\n        address to;\r\n        string Police_Report_IPFS;\r\n        string status;\r\n        bool report_status;\r\n        bool state;\r\n        uint[] id;\r\n    }\r\n    mapping(uint =>sub_claim)public SubrogationT;\r\n    function recieve_subrogation(string memory Name,string memory Date,uint Amount,address From,address To,string memory report)public{\r\n     no_of_SubClaims_In++;\r\n    SubrogationT[no_of_SubClaims_In].id.push(no_of_SubClaims_In);\r\n    SubrogationT[no_of_SubClaims_In].name=Name;\r\n    SubrogationT[no_of_SubClaims_In].date=Date;\r\n    SubrogationT[no_of_SubClaims_In].amount=Amount;\r\n    SubrogationT[no_of_SubClaims_In].from= From;\r\n    SubrogationT[no_of_SubClaims_In].to=To;\r\n    SubrogationT[no_of_SubClaims_In].Police_Report_IPFS=report;\r\n    SubrogationT[no_of_SubClaims_In].state=false;\r\n    SubrogationT[no_of_SubClaims_In].report_status=false;\r\n    SubrogationT[no_of_SubClaims_In].status=\"claim Transferred to SIU\";\r\n    }\r\n    function show_report(uint ID)external view returns(string memory ){\r\n     return  SubrogationT[ID].Police_Report_IPFS;\r\n    }\r\n    function Report_checked(uint ID)external {\r\n      SubrogationT[ID].report_status=true;  \r\n    }\r\n     function Report_check(uint ID)external view returns(bool){\r\n      return SubrogationT[ID].report_status;  \r\n    }\r\n    function accept_subrogation(uint ID)external {\r\n         SubrogationT[ID ].state=true;\r\n         SubrogationT[ID].status=\"Accepted\";\r\n    }\r\n    function claim_address()public view returns(Claim)\r\n    {\r\n       return x;\r\n    }\r\n    \r\n}",
  "sourcePath": "C:\\Users\\Ameeth\\test4\\contracts\\Adjuster.sol",
  "compiler": {
    "name": "solc",
    "version": "0.5.16+commit.9c3226ce.Emscripten.clang"
  },
  "schemaVersion": "3.4.6",
  "updatedAt": "2022-04-12T20:52:13.323Z",
  "networkType": "ethereum",
  "devdoc": {
    "methods": {}
  },
  "userdoc": {
    "methods": {}
  }
}