{
  "contractName": "Agency",
  "abi": [
    {
      "constant": true,
      "inputs": [],
      "name": "no_of_SubClaims_Out",
      "outputs": [
        {
          "internalType": "uint256",
          "name": "",
          "type": "uint256"
        }
      ],
      "payable": false,
      "stateMutability": "view",
      "type": "function"
    },
    {
      "constant": false,
      "inputs": [
        {
          "internalType": "address",
          "name": "x",
          "type": "address"
        }
      ],
      "name": "set_claim_add",
      "outputs": [],
      "payable": false,
      "stateMutability": "nonpayable",
      "type": "function"
    },
    {
      "constant": false,
      "inputs": [
        {
          "internalType": "address",
          "name": "y",
          "type": "address"
        }
      ],
      "name": "set_adjuster_add",
      "outputs": [],
      "payable": false,
      "stateMutability": "nonpayable",
      "type": "function"
    },
    {
      "constant": false,
      "inputs": [
        {
          "internalType": "uint256",
          "name": "ID",
          "type": "uint256"
        },
        {
          "internalType": "uint256",
          "name": "amount",
          "type": "uint256"
        }
      ],
      "name": "set_amount",
      "outputs": [],
      "payable": false,
      "stateMutability": "nonpayable",
      "type": "function"
    },
    {
      "constant": false,
      "inputs": [
        {
          "internalType": "uint256",
          "name": "ID",
          "type": "uint256"
        }
      ],
      "name": "accept_Subrogation",
      "outputs": [],
      "payable": false,
      "stateMutability": "nonpayable",
      "type": "function"
    },
    {
      "constant": true,
      "inputs": [],
      "name": "SubClaims_Out",
      "outputs": [
        {
          "internalType": "uint256",
          "name": "",
          "type": "uint256"
        }
      ],
      "payable": false,
      "stateMutability": "view",
      "type": "function"
    }
  ],
  "bytecode": "0x6080604052600060025534801561001557600080fd5b50610423806100256000396000f3fe608060405234801561001057600080fd5b50600436106100625760003560e01c80636db757991461006757806384582e611461009f57806387af4c6a146100e3578063eb6e9a3214610101578063ef80b47f1461012f578063f40c258614610173575b600080fd5b61009d6004803603604081101561007d57600080fd5b810190808035906020019092919080359060200190929190505050610191565b005b6100e1600480360360208110156100b557600080fd5b81019080803573ffffffffffffffffffffffffffffffffffffffff16906020019092919050505061022f565b005b6100eb610272565b6040518082815260200191505060405180910390f35b61012d6004803603602081101561011757600080fd5b810190808035906020019092919050505061027c565b005b6101716004803603602081101561014557600080fd5b81019080803573ffffffffffffffffffffffffffffffffffffffff1690602001909291905050506103a4565b005b61017b6103e8565b6040518082815260200191505060405180910390f35b60008060009054906101000a900473ffffffffffffffffffffffffffffffffffffffff1690508073ffffffffffffffffffffffffffffffffffffffff16636db7579984846040518363ffffffff1660e01b81526004018083815260200182815260200192505050600060405180830381600087803b15801561021257600080fd5b505af1158015610226573d6000803e3d6000fd5b50505050505050565b806000806101000a81548173ffffffffffffffffffffffffffffffffffffffff021916908373ffffffffffffffffffffffffffffffffffffffff16021790555050565b6000600254905090565b6000600160009054906101000a900473ffffffffffffffffffffffffffffffffffffffff1690508073ffffffffffffffffffffffffffffffffffffffff166313768f5b836040518263ffffffff1660e01b81526004018082815260200191505060206040518083038186803b1580156102f457600080fd5b505afa158015610308573d6000803e3d6000fd5b505050506040513d602081101561031e57600080fd5b8101908080519060200190929190505050156103a0578073ffffffffffffffffffffffffffffffffffffffff1663b0a13843836040518263ffffffff1660e01b815260040180828152602001915050600060405180830381600087803b15801561038757600080fd5b505af115801561039b573d6000803e3d6000fd5b505050505b5050565b80600160006101000a81548173ffffffffffffffffffffffffffffffffffffffff021916908373ffffffffffffffffffffffffffffffffffffffff16021790555050565b6002548156fea265627a7a723158209198a82bbd02e36e3497f19e436c4e586859ad732d1eda4f96fd9f741bcd3eda64736f6c63430005100032",
  "source": "//final amount\r\n//make a new claim for subrogation\r\npragma solidity >=0.4.24;\r\nimport\"./Claim.sol\";\r\nimport\"./Adjuster.sol\";\r\ncontract Agency{\r\n    address claim_add;\r\n    address adjuster_add;\r\n    uint public no_of_SubClaims_Out=0;\r\n    function set_claim_add(address x)public\r\n    {\r\n        claim_add=x;\r\n    }\r\n  function set_adjuster_add(address y)public\r\n    {\r\n        adjuster_add=y;\r\n    }\r\n    function set_amount(uint ID,uint amount)public{\r\n        Claim use = Claim(claim_add);\r\n        use.set_amount(ID,amount);\r\n    }\r\n    function accept_Subrogation(uint ID)public{\r\n\r\n      Adjuster use = Adjuster(adjuster_add);\r\n      if(use.Report_check(ID))\r\n      {\r\n         use.accept_subrogation(ID);\r\n      }\r\n    }\r\n    function SubClaims_Out()public view returns(uint){\r\n        return no_of_SubClaims_Out;\r\n    }\r\n}",
  "sourcePath": "C:\\Users\\Ameeth\\test4\\contracts\\Agency.sol",
  "compiler": {
    "name": "solc",
    "version": "0.5.16+commit.9c3226ce.Emscripten.clang"
  },
  "schemaVersion": "3.4.6",
  "updatedAt": "2022-05-03T06:45:54.370Z",
  "devdoc": {
    "methods": {}
  },
  "userdoc": {
    "methods": {}
  }
}