{
  "contractName": "Claim",
  "abi": [
    {
      "inputs": [
        {
          "internalType": "uint256",
          "name": "idin",
          "type": "uint256"
        },
        {
          "internalType": "uint256",
          "name": "idpo",
          "type": "uint256"
        },
        {
          "internalType": "string",
          "name": "date1",
          "type": "string"
        },
        {
          "internalType": "address",
          "name": "X",
          "type": "address"
        }
      ],
      "payable": false,
      "stateMutability": "nonpayable",
      "type": "constructor"
    },
    {
      "constant": true,
      "inputs": [
        {
          "internalType": "uint256",
          "name": "",
          "type": "uint256"
        }
      ],
      "name": "SubT",
      "outputs": [
        {
          "internalType": "string",
          "name": "name",
          "type": "string"
        },
        {
          "internalType": "string",
          "name": "date",
          "type": "string"
        },
        {
          "internalType": "uint256",
          "name": "amount",
          "type": "uint256"
        },
        {
          "internalType": "address",
          "name": "from",
          "type": "address"
        },
        {
          "internalType": "address",
          "name": "to",
          "type": "address"
        },
        {
          "internalType": "string",
          "name": "Police_Report_IPFS",
          "type": "string"
        },
        {
          "internalType": "string",
          "name": "status",
          "type": "string"
        }
      ],
      "payable": false,
      "stateMutability": "view",
      "type": "function"
    },
    {
      "constant": true,
      "inputs": [],
      "name": "claim_id",
      "outputs": [
        {
          "internalType": "uint256",
          "name": "",
          "type": "uint256"
        }
      ],
      "payable": false,
      "stateMutability": "view",
      "type": "function"
    },
    {
      "constant": false,
      "inputs": [
        {
          "internalType": "uint256",
          "name": "x",
          "type": "uint256"
        }
      ],
      "name": "set_Subrogation",
      "outputs": [],
      "payable": false,
      "stateMutability": "nonpayable",
      "type": "function"
    },
    {
      "constant": false,
      "inputs": [
        {
          "internalType": "uint256",
          "name": "x",
          "type": "uint256"
        },
        {
          "internalType": "string",
          "name": "Date1",
          "type": "string"
        },
        {
          "internalType": "string",
          "name": "Name",
          "type": "string"
        },
        {
          "internalType": "address",
          "name": "From",
          "type": "address"
        },
        {
          "internalType": "address",
          "name": "fault",
          "type": "address"
        },
        {
          "internalType": "string",
          "name": "check",
          "type": "string"
        }
      ],
      "name": "sub_claim_init",
      "outputs": [],
      "payable": false,
      "stateMutability": "nonpayable",
      "type": "function"
    },
    {
      "constant": false,
      "inputs": [
        {
          "internalType": "uint256",
          "name": "x",
          "type": "uint256"
        },
        {
          "internalType": "uint256",
          "name": "y",
          "type": "uint256"
        }
      ],
      "name": "set_amount",
      "outputs": [],
      "payable": false,
      "stateMutability": "nonpayable",
      "type": "function"
    },
    {
      "constant": true,
      "inputs": [
        {
          "internalType": "uint256",
          "name": "x",
          "type": "uint256"
        }
      ],
      "name": "detail1",
      "outputs": [
        {
          "internalType": "string",
          "name": "",
          "type": "string"
        }
      ],
      "payable": false,
      "stateMutability": "view",
      "type": "function"
    },
    {
      "constant": true,
      "inputs": [
        {
          "internalType": "uint256",
          "name": "x",
          "type": "uint256"
        }
      ],
      "name": "detail2",
      "outputs": [
        {
          "internalType": "string",
          "name": "",
          "type": "string"
        }
      ],
      "payable": false,
      "stateMutability": "view",
      "type": "function"
    },
    {
      "constant": true,
      "inputs": [
        {
          "internalType": "uint256",
          "name": "x",
          "type": "uint256"
        }
      ],
      "name": "detail3",
      "outputs": [
        {
          "internalType": "uint256",
          "name": "",
          "type": "uint256"
        }
      ],
      "payable": false,
      "stateMutability": "view",
      "type": "function"
    },
    {
      "constant": true,
      "inputs": [
        {
          "internalType": "uint256",
          "name": "x",
          "type": "uint256"
        }
      ],
      "name": "detail4",
      "outputs": [
        {
          "internalType": "address",
          "name": "",
          "type": "address"
        }
      ],
      "payable": false,
      "stateMutability": "view",
      "type": "function"
    },
    {
      "constant": true,
      "inputs": [
        {
          "internalType": "uint256",
          "name": "x",
          "type": "uint256"
        }
      ],
      "name": "detail5",
      "outputs": [
        {
          "internalType": "address",
          "name": "",
          "type": "address"
        }
      ],
      "payable": false,
      "stateMutability": "view",
      "type": "function"
    },
    {
      "constant": true,
      "inputs": [
        {
          "internalType": "uint256",
          "name": "x",
          "type": "uint256"
        }
      ],
      "name": "detail6",
      "outputs": [
        {
          "internalType": "string",
          "name": "",
          "type": "string"
        }
      ],
      "payable": false,
      "stateMutability": "view",
      "type": "function"
    }
  ],
  "bytecode": "0x6080604052600080553480156200001557600080fd5b506040516200143138038062001431833981810160405260808110156200003b57600080fd5b810190808051906020019092919080519060200190929190805160405193929190846401000000008211156200007057600080fd5b838201915060208201858111156200008757600080fd5b8251866001820283011164010000000082111715620000a557600080fd5b8083526020830192505050908051906020019080838360005b83811015620000db578082015181840152602081019050620000be565b50505050905090810190601f168015620001095780820380516001836020036101000a031916815260200191505b50604052602001805190602001909291905050506000808154809291906001019190505550836001600080548152602001908152602001600020600001819055508260016000805481526020019081526020016000206001018190555081600160008054815260200190815260200160002060020190805190602001906200019392919062000287565b5080600160008054815260200190815260200160002060030160006101000a81548173ffffffffffffffffffffffffffffffffffffffff021916908373ffffffffffffffffffffffffffffffffffffffff1602179055506040518060400160405280601281526020017f436c61696d277320526567697374657265640000000000000000000000000000815250600160008054815260200190815260200160002060040190805190602001906200024c92919062000287565b506000600160008054815260200190815260200160002060050160006101000a81548160ff0219169083151502179055505050505062000336565b828054600181600116156101000203166002900490600052602060002090601f016020900481019282601f10620002ca57805160ff1916838001178555620002fb565b82800160010185558215620002fb579182015b82811115620002fa578251825591602001919060010190620002dd565b5b5090506200030a91906200030e565b5090565b6200033391905b808211156200032f57600081600090555060010162000315565b5090565b90565b6110eb80620003466000396000f3fe608060405234801561001057600080fd5b50600436106100a95760003560e01c806394c4c7811161007157806394c4c7811461025b578063c44da96014610289578063c8fb7832146102f7578063c9889c8b1461039e578063dd246018146105f6578063dfb5578314610763576100a9565b80630cb9c23e146100ae5780632a31d6b5146100f0578063678a1534146101975780636db757991461020557806371c6230b1461023d575b600080fd5b6100da600480360360208110156100c457600080fd5b810190808035906020019092919050505061080a565b6040518082815260200191505060405180910390f35b61011c6004803603602081101561010657600080fd5b810190808035906020019092919050505061082a565b6040518080602001828103825283818151815260200191508051906020019080838360005b8381101561015c578082015181840152602081019050610141565b50505050905090810190601f1680156101895780820380516001836020036101000a031916815260200191505b509250505060405180910390f35b6101c3600480360360208110156101ad57600080fd5b81019080803590602001909291905050506108e2565b604051808273ffffffffffffffffffffffffffffffffffffffff1673ffffffffffffffffffffffffffffffffffffffff16815260200191505060405180910390f35b61023b6004803603604081101561021b57600080fd5b810190808035906020019092919080359060200190929190505050610922565b005b610245610941565b6040518082815260200191505060405180910390f35b6102876004803603602081101561027157600080fd5b8101908080359060200190929190505050610947565b005b6102b56004803603602081101561029f57600080fd5b8101908080359060200190929190505050610978565b604051808273ffffffffffffffffffffffffffffffffffffffff1673ffffffffffffffffffffffffffffffffffffffff16815260200191505060405180910390f35b6103236004803603602081101561030d57600080fd5b81019080803590602001909291905050506109b8565b6040518080602001828103825283818151815260200191508051906020019080838360005b83811015610363578082015181840152602081019050610348565b50505050905090810190601f1680156103905780820380516001836020036101000a031916815260200191505b509250505060405180910390f35b6103ca600480360360208110156103b457600080fd5b8101908080359060200190929190505050610a70565b6040518080602001806020018881526020018773ffffffffffffffffffffffffffffffffffffffff1673ffffffffffffffffffffffffffffffffffffffff1681526020018673ffffffffffffffffffffffffffffffffffffffff1673ffffffffffffffffffffffffffffffffffffffff168152602001806020018060200185810385528c818151815260200191508051906020019080838360005b83811015610480578082015181840152602081019050610465565b50505050905090810190601f1680156104ad5780820380516001836020036101000a031916815260200191505b5085810384528b818151815260200191508051906020019080838360005b838110156104e65780820151818401526020810190506104cb565b50505050905090810190601f1680156105135780820380516001836020036101000a031916815260200191505b50858103835287818151815260200191508051906020019080838360005b8381101561054c578082015181840152602081019050610531565b50505050905090810190601f1680156105795780820380516001836020036101000a031916815260200191505b50858103825286818151815260200191508051906020019080838360005b838110156105b2578082015181840152602081019050610597565b50505050905090810190601f1680156105df5780820380516001836020036101000a031916815260200191505b509b50505050505050505050505060405180910390f35b610761600480360360c081101561060c57600080fd5b81019080803590602001909291908035906020019064010000000081111561063357600080fd5b82018360208201111561064557600080fd5b8035906020019184600183028401116401000000008311171561066757600080fd5b90919293919293908035906020019064010000000081111561068857600080fd5b82018360208201111561069a57600080fd5b803590602001918460018302840111640100000000831117156106bc57600080fd5b9091929391929390803573ffffffffffffffffffffffffffffffffffffffff169060200190929190803573ffffffffffffffffffffffffffffffffffffffff1690602001909291908035906020019064010000000081111561071d57600080fd5b82018360208201111561072f57600080fd5b8035906020019184600183028401116401000000008311171561075157600080fd5b9091929391929390505050610d52565b005b61078f6004803603602081101561077957600080fd5b8101908080359060200190929190505050610ed9565b6040518080602001828103825283818151815260200191508051906020019080838360005b838110156107cf5780820151818401526020810190506107b4565b50505050905090810190601f1680156107fc5780820380516001836020036101000a031916815260200191505b509250505060405180910390f35b600060026000838152602001908152602001600020600201549050919050565b6060600260008381526020019081526020016000206005018054600181600116156101000203166002900480601f0160208091040260200160405190810160405280929190818152602001828054600181600116156101000203166002900480156108d65780601f106108ab576101008083540402835291602001916108d6565b820191906000526020600020905b8154815290600101906020018083116108b957829003601f168201915b50505050509050919050565b60006002600083815260200190815260200160002060030160009054906101000a900473ffffffffffffffffffffffffffffffffffffffff169050919050565b8060026000848152602001908152602001600020600201819055505050565b60005481565b600180600083815260200190815260200160002060050160006101000a81548160ff02191690831515021790555050565b60006002600083815260200190815260200160002060040160009054906101000a900473ffffffffffffffffffffffffffffffffffffffff169050919050565b6060600260008381526020019081526020016000206000018054600181600116156101000203166002900480601f016020809104026020016040519081016040528092919081815260200182805460018160011615610100020316600290048015610a645780601f10610a3957610100808354040283529160200191610a64565b820191906000526020600020905b815481529060010190602001808311610a4757829003601f168201915b50505050509050919050565b6002602052806000526040600020600091509050806000018054600181600116156101000203166002900480601f016020809104026020016040519081016040528092919081815260200182805460018160011615610100020316600290048015610b1c5780601f10610af157610100808354040283529160200191610b1c565b820191906000526020600020905b815481529060010190602001808311610aff57829003601f168201915b505050505090806001018054600181600116156101000203166002900480601f016020809104026020016040519081016040528092919081815260200182805460018160011615610100020316600290048015610bba5780601f10610b8f57610100808354040283529160200191610bba565b820191906000526020600020905b815481529060010190602001808311610b9d57829003601f168201915b5050505050908060020154908060030160009054906101000a900473ffffffffffffffffffffffffffffffffffffffff16908060040160009054906101000a900473ffffffffffffffffffffffffffffffffffffffff1690806005018054600181600116156101000203166002900480601f016020809104026020016040519081016040528092919081815260200182805460018160011615610100020316600290048015610caa5780601f10610c7f57610100808354040283529160200191610caa565b820191906000526020600020905b815481529060010190602001808311610c8d57829003601f168201915b505050505090806006018054600181600116156101000203166002900480601f016020809104026020016040519081016040528092919081815260200182805460018160011615610100020316600290048015610d485780601f10610d1d57610100808354040283529160200191610d48565b820191906000526020600020905b815481529060010190602001808311610d2b57829003601f168201915b5050505050905087565b8585600260008c81526020019081526020016000206000019190610d77929190610f91565b508787600260008c81526020019081526020016000206001019190610d9d929190610f91565b5083600260008b815260200190815260200160002060030160006101000a81548173ffffffffffffffffffffffffffffffffffffffff021916908373ffffffffffffffffffffffffffffffffffffffff16021790555082600260008b815260200190815260200160002060040160006101000a81548173ffffffffffffffffffffffffffffffffffffffff021916908373ffffffffffffffffffffffffffffffffffffffff1602179055508181600260008c81526020019081526020016000206005019190610e6d929190610f91565b506040518060400160405280600f81526020017f436c61696d20496e697469617465640000000000000000000000000000000000815250600260008b81526020019081526020016000206006019080519060200190610ecd929190611011565b50505050505050505050565b6060600260008381526020019081526020016000206001018054600181600116156101000203166002900480601f016020809104026020016040519081016040528092919081815260200182805460018160011615610100020316600290048015610f855780601f10610f5a57610100808354040283529160200191610f85565b820191906000526020600020905b815481529060010190602001808311610f6857829003601f168201915b50505050509050919050565b828054600181600116156101000203166002900490600052602060002090601f016020900481019282601f10610fd257803560ff1916838001178555611000565b82800160010185558215611000579182015b82811115610fff578235825591602001919060010190610fe4565b5b50905061100d9190611091565b5090565b828054600181600116156101000203166002900490600052602060002090601f016020900481019282601f1061105257805160ff1916838001178555611080565b82800160010185558215611080579182015b8281111561107f578251825591602001919060010190611064565b5b50905061108d9190611091565b5090565b6110b391905b808211156110af576000816000905550600101611097565b5090565b9056fea265627a7a723158202391d2413992ec9804f87692e8f8fd89197aba12ad96fc836cc92946c6ecf3af64736f6c63430005100032",
  "source": "pragma solidity >=0.4.24;\r\ncontract Claim{\r\n    uint public claim_id=0;\r\n    struct claim_details{\r\n     uint insured;\r\n     uint policy;\r\n     string date;\r\n     address adjuster;\r\n     string status;\r\n     bool subrogation;\r\n    }\r\n    mapping(uint=>claim_details)claimT;\r\n    struct sub_claim{\r\n        string name;\r\n        string date;\r\n        uint amount;\r\n        address from;\r\n        address to;\r\n        string Police_Report_IPFS;\r\n        string status;\r\n    }\r\n    mapping(uint=>sub_claim)public SubT;\r\n    constructor(uint idin,uint idpo,string memory date1,address X)public{\r\n        claim_id++;\r\n        claimT[claim_id].insured=idin;\r\n        claimT[claim_id].policy=idpo;\r\n        claimT[claim_id].date=date1;\r\n        claimT[claim_id].adjuster=X;\r\n        claimT[claim_id].status=\"Claim's Registered\";\r\n        claimT[claim_id].subrogation=false;\r\n    }\r\n    function set_Subrogation(uint x)external{\r\n        claimT[x].subrogation=true;\r\n    }\r\n    function sub_claim_init(uint x,string calldata Date1,string calldata Name,address From,address fault,string calldata check)external{\r\n        SubT[x].name=Name;\r\n        SubT[x].date=Date1;\r\n        SubT[x].from=From;\r\n        SubT[x].to=fault;\r\n        SubT[x].Police_Report_IPFS=check;\r\n        SubT[x].status=\"Claim Initiated\";\r\n    }\r\n    function set_amount(uint x,uint y)external{\r\n       SubT[x].amount=y;\r\n    }\r\n    function detail1(uint x)public view returns(string memory){\r\n       return SubT[x].name;\r\n    }\r\n    function detail2(uint x)public view returns(string memory){\r\n       return SubT[x].date;\r\n    }\r\n    function detail3(uint x)public view returns(uint){\r\n       return SubT[x].amount;\r\n    }\r\n    function detail4(uint x)public view returns(address){\r\n       return SubT[x].from;\r\n    }\r\n    function detail5(uint x)public view returns(address){\r\n       return SubT[x].to;\r\n    }\r\n     function detail6(uint x)public view returns(string memory){\r\n       return SubT[x].Police_Report_IPFS;\r\n    }\r\n}",
  "sourcePath": "C:\\Users\\Ameeth\\test4\\contracts\\Claim.sol",
  "compiler": {
    "name": "solc",
    "version": "0.5.16+commit.9c3226ce.Emscripten.clang"
  },
  "schemaVersion": "3.4.6",
  "updatedAt": "2022-04-12T20:52:09.756Z",
  "devdoc": {
    "methods": {}
  },
  "userdoc": {
    "methods": {}
  }
}