{
  "contractName": "Policy",
  "abi": [
    {
      "constant": true,
      "inputs": [],
      "name": "Policy_ID",
      "outputs": [
        {
          "internalType": "uint256",
          "name": "",
          "type": "uint256"
        }
      ],
      "payable": false,
      "stateMutability": "view",
      "type": "function"
    },
    {
      "constant": true,
      "inputs": [],
      "name": "ins_id",
      "outputs": [
        {
          "internalType": "uint256",
          "name": "",
          "type": "uint256"
        }
      ],
      "payable": false,
      "stateMutability": "view",
      "type": "function"
    },
    {
      "constant": false,
      "inputs": [
        {
          "internalType": "string",
          "name": "Name",
          "type": "string"
        },
        {
          "internalType": "uint256",
          "name": "premium",
          "type": "uint256"
        }
      ],
      "name": "Policy_Init",
      "outputs": [],
      "payable": false,
      "stateMutability": "nonpayable",
      "type": "function"
    },
    {
      "constant": true,
      "inputs": [],
      "name": "get_Policy_Id",
      "outputs": [
        {
          "internalType": "uint256",
          "name": "",
          "type": "uint256"
        }
      ],
      "payable": false,
      "stateMutability": "view",
      "type": "function"
    },
    {
      "constant": true,
      "inputs": [],
      "name": "get_Policy_Client_Id",
      "outputs": [
        {
          "internalType": "uint256",
          "name": "",
          "type": "uint256"
        }
      ],
      "payable": false,
      "stateMutability": "view",
      "type": "function"
    },
    {
      "constant": true,
      "inputs": [
        {
          "internalType": "uint256",
          "name": "id",
          "type": "uint256"
        }
      ],
      "name": "get_Policy_Details",
      "outputs": [
        {
          "internalType": "string",
          "name": "name",
          "type": "string"
        },
        {
          "internalType": "uint256",
          "name": "premium",
          "type": "uint256"
        }
      ],
      "payable": false,
      "stateMutability": "view",
      "type": "function"
    },
    {
      "constant": false,
      "inputs": [
        {
          "internalType": "uint256",
          "name": "Client_ID",
          "type": "uint256"
        },
        {
          "internalType": "uint256",
          "name": "PolicyID",
          "type": "uint256"
        }
      ],
      "name": "Policy_Client_init",
      "outputs": [],
      "payable": false,
      "stateMutability": "nonpayable",
      "type": "function"
    },
    {
      "constant": true,
      "inputs": [
        {
          "internalType": "uint256",
          "name": "x",
          "type": "uint256"
        },
        {
          "internalType": "uint256",
          "name": "y",
          "type": "uint256"
        }
      ],
      "name": "Policy_check",
      "outputs": [
        {
          "internalType": "bool",
          "name": "",
          "type": "bool"
        }
      ],
      "payable": false,
      "stateMutability": "view",
      "type": "function"
    }
  ],
  "bytecode": "0x608060405260008055600060015534801561001957600080fd5b5061067c806100296000396000f3fe608060405234801561001057600080fd5b50600436106100885760003560e01c80634a9a18731161005b5780634a9a18731461023c57806388fedac51461028c578063d34f1dc3146102aa578063d50936c0146102c857610088565b80630e9d6d721461008d57806327118214146100ab5780632c87ba19146100c9578063494c090714610177575b600080fd5b610095610300565b6040518082815260200191505060405180910390f35b6100b3610306565b6040518082815260200191505060405180910390f35b6100f5600480360360208110156100df57600080fd5b8101908080359060200190929190505050610310565b6040518080602001838152602001828103825284818151815260200191508051906020019080838360005b8381101561013b578082015181840152602081019050610120565b50505050905090810190601f1680156101685780820380516001836020036101000a031916815260200191505b50935050505060405180910390f35b61023a6004803603604081101561018d57600080fd5b81019080803590602001906401000000008111156101aa57600080fd5b8201836020820111156101bc57600080fd5b803590602001918460018302840111640100000000831117156101de57600080fd5b91908080601f016020809104026020016040519081016040528093929190818152602001838380828437600081840152601f19601f820116905080830192505050505050509192919290803590602001909291905050506103e6565b005b6102726004803603604081101561025257600080fd5b810190808035906020019092919080359060200190929190505050610464565b604051808215151515815260200191505060405180910390f35b6102946104e0565b6040518082815260200191505060405180910390f35b6102b26104e6565b6040518082815260200191505060405180910390f35b6102fe600480360360408110156102de57600080fd5b8101908080359060200190929190803590602001909291905050506104ef565b005b60005481565b6000600154905090565b60606000600260008481526020019081526020016000206000016002600085815260200190815260200160002060010154818054600181600116156101000203166002900480601f0160208091040260200160405190810160405280929190818152602001828054600181600116156101000203166002900480156103d65780601f106103ab576101008083540402835291602001916103d6565b820191906000526020600020905b8154815290600101906020018083116103b957829003601f168201915b5050505050915091509150915091565b6001600081548092919060010191905055508160026000600154815260200190815260200160002060000190805190602001906104249291906105a2565b5080600260006001548152602001908152602001600020600101819055506000600260006001548152602001908152602001600020600301819055505050565b600080600090505b60026000848152602001908152602001600020600301548110156104d457836002600085815260200190815260200160002060020182815481106104ac57fe5b906000526020600020015414156104c75760019150506104da565b808060010191505061046c565b50600090505b92915050565b60015481565b60008054905090565b600080815480929190600101919050555081600360008054815260200190815260200160002060000181905550806003600080548152602001908152602001600020600101819055506002600082815260200190815260200160002060030160008154809291906001019190505550600260008281526020019081526020016000206002018290806001815401808255809150509060018203906000526020600020016000909192909190915055505050565b828054600181600116156101000203166002900490600052602060002090601f016020900481019282601f106105e357805160ff1916838001178555610611565b82800160010185558215610611579182015b828111156106105782518255916020019190600101906105f5565b5b50905061061e9190610622565b5090565b61064491905b80821115610640576000816000905550600101610628565b5090565b9056fea265627a7a72315820eaf14c0b1b34af13d3e7aaab4b68f2e3aebd45da596bdffc4581978d4fb1cb2d64736f6c63430005100032",
  "source": "pragma solidity >=0.4.24;\r\ncontract Policy{\r\n    uint public ins_id =0;\r\n    uint public Policy_ID=0;\r\n    struct Policy_Details{\r\n        string name;\r\n        uint premium;\r\n        uint[] insured;\r\n        uint no_of_insured;\r\n    }\r\n    mapping(uint => Policy_Details)PolicyT;\r\n     struct Policy_Client\r\n    {\r\n        uint client_ID;\r\n        uint policy_ID;\r\n    }\r\n    mapping(uint=>Policy_Client)PCT;\r\n    function  Policy_Init(string memory Name,uint premium)public{\r\n        Policy_ID++;\r\n         PolicyT[Policy_ID].name=Name;\r\n         PolicyT[Policy_ID].premium=premium;\r\n         PolicyT[Policy_ID].no_of_insured=0;\r\n    }\r\n    function get_Policy_Id()public view returns(uint){\r\n        return Policy_ID;\r\n    }\r\n    function get_Policy_Client_Id()public view returns(uint){\r\n        return ins_id;\r\n    }\r\n    function get_Policy_Details(uint id)public view returns(string memory name,uint premium)\r\n    {\r\n       return(PolicyT[id].name,PolicyT[id].premium);\r\n    }\r\n      function Policy_Client_init(uint Client_ID,uint PolicyID)public{\r\n        ins_id++;\r\n        PCT[ins_id].client_ID=Client_ID;\r\n        PCT[ins_id].policy_ID=PolicyID;\r\n        PolicyT[PolicyID].no_of_insured++;\r\n        PolicyT[PolicyID].insured.push(Client_ID);\r\n    }\r\n  function Policy_check(uint x,uint y)public view returns(bool)\r\n  {\r\n      for(uint i=0;i<PolicyT[y].no_of_insured;i++)\r\n      {\r\n     if(PolicyT[y].insured[i]==x)\r\n          return true;\r\n      }\r\n      return false;\r\n  }\r\n\r\n}",
  "sourcePath": "C:\\Users\\Ameeth\\test4\\contracts\\Policy.sol",
  "compiler": {
    "name": "solc",
    "version": "0.5.16+commit.9c3226ce.Emscripten.clang"
  },
  "schemaVersion": "3.4.6",
  "updatedAt": "2022-04-12T20:52:13.320Z",
  "networkType": "ethereum",
  "devdoc": {
    "methods": {}
  },
  "userdoc": {
    "methods": {}
  }
}