{
  "contractName": "SIU",
  "abi": [
    {
      "constant": false,
      "inputs": [
        {
          "internalType": "address",
          "name": "x",
          "type": "address"
        }
      ],
      "name": "set_claim",
      "outputs": [],
      "payable": false,
      "stateMutability": "nonpayable",
      "type": "function"
    },
    {
      "constant": false,
      "inputs": [
        {
          "internalType": "address",
          "name": "y",
          "type": "address"
        }
      ],
      "name": "set_adjuster",
      "outputs": [],
      "payable": false,
      "stateMutability": "nonpayable",
      "type": "function"
    },
    {
      "constant": false,
      "inputs": [
        {
          "internalType": "uint256",
          "name": "ID",
          "type": "uint256"
        },
        {
          "internalType": "string",
          "name": "date",
          "type": "string"
        },
        {
          "internalType": "string",
          "name": "name",
          "type": "string"
        },
        {
          "internalType": "address",
          "name": "fault",
          "type": "address"
        },
        {
          "internalType": "string",
          "name": "report",
          "type": "string"
        }
      ],
      "name": "set_sub",
      "outputs": [],
      "payable": false,
      "stateMutability": "nonpayable",
      "type": "function"
    },
    {
      "constant": true,
      "inputs": [
        {
          "internalType": "uint256",
          "name": "ID",
          "type": "uint256"
        }
      ],
      "name": "check_report",
      "outputs": [
        {
          "internalType": "string",
          "name": "",
          "type": "string"
        }
      ],
      "payable": false,
      "stateMutability": "view",
      "type": "function"
    },
    {
      "constant": false,
      "inputs": [
        {
          "internalType": "uint256",
          "name": "ID",
          "type": "uint256"
        }
      ],
      "name": "accept_report",
      "outputs": [],
      "payable": false,
      "stateMutability": "nonpayable",
      "type": "function"
    }
  ],
  "bytecode": "0x608060405233600260006101000a81548173ffffffffffffffffffffffffffffffffffffffff021916908373ffffffffffffffffffffffffffffffffffffffff16021790555034801561005157600080fd5b5061096e806100616000396000f3fe608060405234801561001057600080fd5b50600436106100575760003560e01c80631b506e791461005c5780631f6f88911461026f57806334f7b0921461029d57806369535292146102e1578063a8f75c4014610325575b600080fd5b61026d600480360360a081101561007257600080fd5b81019080803590602001909291908035906020019064010000000081111561009957600080fd5b8201836020820111156100ab57600080fd5b803590602001918460018302840111640100000000831117156100cd57600080fd5b91908080601f016020809104026020016040519081016040528093929190818152602001838380828437600081840152601f19601f8201169050808301925050505050505091929192908035906020019064010000000081111561013057600080fd5b82018360208201111561014257600080fd5b8035906020019184600183028401116401000000008311171561016457600080fd5b91908080601f016020809104026020016040519081016040528093929190818152602001838380828437600081840152601f19601f820116905080830192505050505050509192919290803573ffffffffffffffffffffffffffffffffffffffff169060200190929190803590602001906401000000008111156101e757600080fd5b8201836020820111156101f957600080fd5b8035906020019184600183028401116401000000008311171561021b57600080fd5b91908080601f016020809104026020016040519081016040528093929190818152602001838380828437600081840152601f19601f8201169050808301925050505050505091929192905050506103cc565b005b61029b6004803603602081101561028557600080fd5b81019080803590602001909291905050506106a1565b005b6102df600480360360208110156102b357600080fd5b81019080803573ffffffffffffffffffffffffffffffffffffffff169060200190929190505050610737565b005b610323600480360360208110156102f757600080fd5b81019080803573ffffffffffffffffffffffffffffffffffffffff16906020019092919050505061077a565b005b6103516004803603602081101561033b57600080fd5b81019080803590602001909291905050506107be565b6040518080602001828103825283818151815260200191508051906020019080838360005b83811015610391578082015181840152602081019050610376565b50505050905090810190601f1680156103be5780820380516001836020036101000a031916815260200191505b509250505060405180910390f35b60008060009054906101000a900473ffffffffffffffffffffffffffffffffffffffff1690508073ffffffffffffffffffffffffffffffffffffffff166394c4c781876040518263ffffffff1660e01b815260040180828152602001915050600060405180830381600087803b15801561044557600080fd5b505af1158015610459573d6000803e3d6000fd5b505050508073ffffffffffffffffffffffffffffffffffffffff1663dd246018878688600260009054906101000a900473ffffffffffffffffffffffffffffffffffffffff1688886040518763ffffffff1660e01b81526004018087815260200180602001806020018673ffffffffffffffffffffffffffffffffffffffff1673ffffffffffffffffffffffffffffffffffffffff1681526020018573ffffffffffffffffffffffffffffffffffffffff1673ffffffffffffffffffffffffffffffffffffffff16815260200180602001848103845289818151815260200191508051906020019080838360005b83811015610562578082015181840152602081019050610547565b50505050905090810190601f16801561058f5780820380516001836020036101000a031916815260200191505b50848103835288818151815260200191508051906020019080838360005b838110156105c85780820151818401526020810190506105ad565b50505050905090810190601f1680156105f55780820380516001836020036101000a031916815260200191505b50848103825285818151815260200191508051906020019080838360005b8381101561062e578082015181840152602081019050610613565b50505050905090810190601f16801561065b5780820380516001836020036101000a031916815260200191505b509950505050505050505050600060405180830381600087803b15801561068157600080fd5b505af1158015610695573d6000803e3d6000fd5b50505050505050505050565b6000600160009054906101000a900473ffffffffffffffffffffffffffffffffffffffff1690508073ffffffffffffffffffffffffffffffffffffffff1663decf35fc836040518263ffffffff1660e01b815260040180828152602001915050600060405180830381600087803b15801561071b57600080fd5b505af115801561072f573d6000803e3d6000fd5b505050505050565b806000806101000a81548173ffffffffffffffffffffffffffffffffffffffff021916908373ffffffffffffffffffffffffffffffffffffffff16021790555050565b80600160006101000a81548173ffffffffffffffffffffffffffffffffffffffff021916908373ffffffffffffffffffffffffffffffffffffffff16021790555050565b60606000600160009054906101000a900473ffffffffffffffffffffffffffffffffffffffff1690508073ffffffffffffffffffffffffffffffffffffffff16639758cca5846040518263ffffffff1660e01b81526004018082815260200191505060006040518083038186803b15801561083857600080fd5b505afa15801561084c573d6000803e3d6000fd5b505050506040513d6000823e3d601f19601f82011682018060405250602081101561087657600080fd5b810190808051604051939291908464010000000082111561089657600080fd5b838201915060208201858111156108ac57600080fd5b82518660018202830111640100000000821117156108c957600080fd5b8083526020830192505050908051906020019080838360005b838110156108fd5780820151818401526020810190506108e2565b50505050905090810190601f16801561092a5780820380516001836020036101000a031916815260200191505b5060405250505091505091905056fea265627a7a72315820c2d726000fd5b4a690c4ac38dd9b21847a476d77ea5cf51d2d20bca923c6776664736f6c63430005100032",
  "source": "//refer to subrogation\r\n//verifying the details\r\npragma solidity >=0.4.24;\r\nimport \"./Claim.sol\";\r\nimport\"./Adjuster.sol\";\r\ncontract SIU{\r\n    address claim_add;\r\n    function set_claim(address x)public\r\n    {\r\n     claim_add=x;\r\n    }\r\n    address adjuster_add;\r\n    function set_adjuster(address y)public{\r\n     adjuster_add=y;\r\n    }\r\n    address from=msg.sender;\r\n    function set_sub(uint ID,string memory date,string memory name,address fault,string memory report)public\r\n    {\r\n     Claim use= Claim(claim_add);\r\n     use.set_Subrogation(ID);\r\n     use.sub_claim_init(ID,name,date,from,fault,report);\r\n    }\r\n//returns\r\n    function check_report(uint ID)public view returns(string memory){\r\n     Adjuster use1 = Adjuster(adjuster_add);\r\n      return (use1.show_report(ID));\r\n    }\r\n    function accept_report(uint ID)public {\r\n      Adjuster use1 = Adjuster(adjuster_add);\r\n      use1.Report_checked(ID);\r\n    }\r\n}",
  "sourcePath": "C:\\Users\\Ameeth\\test4\\contracts\\Siu.sol",
  "compiler": {
    "name": "solc",
    "version": "0.5.16+commit.9c3226ce.Emscripten.clang"
  },
  "schemaVersion": "3.4.6",
  "updatedAt": "2022-05-03T06:46:05.090Z",
  "networkType": "ethereum",
  "devdoc": {
    "methods": {}
  },
  "userdoc": {
    "methods": {}
  }
}