{
  "contractName": "Tagency",
  "abi": [
    {
      "constant": true,
      "inputs": [],
      "name": "no_of_SubClaims_Out",
      "outputs": [
        {
          "internalType": "uint256",
          "name": "",
          "type": "uint256"
        }
      ],
      "payable": false,
      "stateMutability": "view",
      "type": "function"
    },
    {
      "constant": false,
      "inputs": [
        {
          "internalType": "address",
          "name": "x",
          "type": "address"
        }
      ],
      "name": "set_claim_add",
      "outputs": [],
      "payable": false,
      "stateMutability": "nonpayable",
      "type": "function"
    },
    {
      "constant": false,
      "inputs": [
        {
          "internalType": "address",
          "name": "y",
          "type": "address"
        }
      ],
      "name": "set_adjuster_add",
      "outputs": [],
      "payable": false,
      "stateMutability": "nonpayable",
      "type": "function"
    },
    {
      "constant": false,
      "inputs": [
        {
          "internalType": "uint256",
          "name": "ID",
          "type": "uint256"
        },
        {
          "internalType": "uint256",
          "name": "amount",
          "type": "uint256"
        }
      ],
      "name": "set_amount",
      "outputs": [],
      "payable": false,
      "stateMutability": "nonpayable",
      "type": "function"
    },
    {
      "constant": false,
      "inputs": [
        {
          "internalType": "uint256",
          "name": "x",
          "type": "uint256"
        }
      ],
      "name": "transfer",
      "outputs": [],
      "payable": false,
      "stateMutability": "nonpayable",
      "type": "function"
    },
    {
      "constant": false,
      "inputs": [
        {
          "internalType": "uint256",
          "name": "ID",
          "type": "uint256"
        }
      ],
      "name": "accept_Subrogation",
      "outputs": [],
      "payable": false,
      "stateMutability": "nonpayable",
      "type": "function"
    },
    {
      "constant": true,
      "inputs": [],
      "name": "SubClaims_Out",
      "outputs": [
        {
          "internalType": "uint256",
          "name": "",
          "type": "uint256"
        }
      ],
      "payable": false,
      "stateMutability": "view",
      "type": "function"
    }
  ],
  "bytecode": "0x6080604052600060025534801561001557600080fd5b50610cf1806100256000396000f3fe608060405234801561001057600080fd5b506004361061007d5760003560e01c806387af4c6a1161005b57806387af4c6a1461012c578063eb6e9a321461014a578063ef80b47f14610178578063f40c2586146101bc5761007d565b806312514bba146100825780636db75799146100b057806384582e61146100e8575b600080fd5b6100ae6004803603602081101561009857600080fd5b81019080803590602001909291905050506101da565b005b6100e6600480360360408110156100c657600080fd5b810190808035906020019092919080359060200190929190505050610a5f565b005b61012a600480360360208110156100fe57600080fd5b81019080803573ffffffffffffffffffffffffffffffffffffffff169060200190929190505050610afd565b005b610134610b40565b6040518082815260200191505060405180910390f35b6101766004803603602081101561016057600080fd5b8101908080359060200190929190505050610b4a565b005b6101ba6004803603602081101561018e57600080fd5b81019080803573ffffffffffffffffffffffffffffffffffffffff169060200190929190505050610c72565b005b6101c4610cb6565b6040518082815260200191505060405180910390f35b60008060009054906101000a900473ffffffffffffffffffffffffffffffffffffffff16905060008173ffffffffffffffffffffffffffffffffffffffff1663c44da960846040518263ffffffff1660e01b81526004018082815260200191505060206040518083038186803b15801561025357600080fd5b505afa158015610267573d6000803e3d6000fd5b505050506040513d602081101561027d57600080fd5b8101908080519060200190929190505050905060608060008060008673ffffffffffffffffffffffffffffffffffffffff1663c8fb7832896040518263ffffffff1660e01b81526004018082815260200191505060006040518083038186803b1580156102e957600080fd5b505afa1580156102fd573d6000803e3d6000fd5b505050506040513d6000823e3d601f19601f82011682018060405250602081101561032757600080fd5b810190808051604051939291908464010000000082111561034757600080fd5b8382019150602082018581111561035d57600080fd5b825186600182028301116401000000008211171561037a57600080fd5b8083526020830192505050908051906020019080838360005b838110156103ae578082015181840152602081019050610393565b50505050905090810190601f1680156103db5780820380516001836020036101000a031916815260200191505b5060405250505094508673ffffffffffffffffffffffffffffffffffffffff1663dfb55783896040518263ffffffff1660e01b81526004018082815260200191505060006040518083038186803b15801561043557600080fd5b505afa158015610449573d6000803e3d6000fd5b505050506040513d6000823e3d601f19601f82011682018060405250602081101561047357600080fd5b810190808051604051939291908464010000000082111561049357600080fd5b838201915060208201858111156104a957600080fd5b82518660018202830111640100000000821117156104c657600080fd5b8083526020830192505050908051906020019080838360005b838110156104fa5780820151818401526020810190506104df565b50505050905090810190601f1680156105275780820380516001836020036101000a031916815260200191505b5060405250505093508673ffffffffffffffffffffffffffffffffffffffff16630cb9c23e896040518263ffffffff1660e01b81526004018082815260200191505060206040518083038186803b15801561058157600080fd5b505afa158015610595573d6000803e3d6000fd5b505050506040513d60208110156105ab57600080fd5b810190808051906020019092919050505092508673ffffffffffffffffffffffffffffffffffffffff1663678a1534896040518263ffffffff1660e01b81526004018082815260200191505060206040518083038186803b15801561060f57600080fd5b505afa158015610623573d6000803e3d6000fd5b505050506040513d602081101561063957600080fd5b810190808051906020019092919050505091508673ffffffffffffffffffffffffffffffffffffffff1663c44da960896040518263ffffffff1660e01b81526004018082815260200191505060206040518083038186803b15801561069d57600080fd5b505afa1580156106b1573d6000803e3d6000fd5b505050506040513d60208110156106c757600080fd5b8101908080519060200190929190505050905060608773ffffffffffffffffffffffffffffffffffffffff16632a31d6b58a6040518263ffffffff1660e01b81526004018082815260200191505060006040518083038186803b15801561072d57600080fd5b505afa158015610741573d6000803e3d6000fd5b505050506040513d6000823e3d601f19601f82011682018060405250602081101561076b57600080fd5b810190808051604051939291908464010000000082111561078b57600080fd5b838201915060208201858111156107a157600080fd5b82518660018202830111640100000000821117156107be57600080fd5b8083526020830192505050908051906020019080838360005b838110156107f25780820151818401526020810190506107d7565b50505050905090810190601f16801561081f5780820380516001836020036101000a031916815260200191505b5060405250505090508673ffffffffffffffffffffffffffffffffffffffff16632f4754888787878787876040518763ffffffff1660e01b81526004018080602001806020018781526020018673ffffffffffffffffffffffffffffffffffffffff1673ffffffffffffffffffffffffffffffffffffffff1681526020018573ffffffffffffffffffffffffffffffffffffffff1673ffffffffffffffffffffffffffffffffffffffff1681526020018060200184810384528a818151815260200191508051906020019080838360005b8381101561090b5780820151818401526020810190506108f0565b50505050905090810190601f1680156109385780820380516001836020036101000a031916815260200191505b50848103835289818151815260200191508051906020019080838360005b83811015610971578082015181840152602081019050610956565b50505050905090810190601f16801561099e5780820380516001836020036101000a031916815260200191505b50848103825285818151815260200191508051906020019080838360005b838110156109d75780820151818401526020810190506109bc565b50505050905090810190601f168015610a045780820380516001836020036101000a031916815260200191505b509950505050505050505050600060405180830381600087803b158015610a2a57600080fd5b505af1158015610a3e573d6000803e3d6000fd5b50505050600260008154809291906001019190505550505050505050505050565b60008060009054906101000a900473ffffffffffffffffffffffffffffffffffffffff1690508073ffffffffffffffffffffffffffffffffffffffff16636db7579984846040518363ffffffff1660e01b81526004018083815260200182815260200192505050600060405180830381600087803b158015610ae057600080fd5b505af1158015610af4573d6000803e3d6000fd5b50505050505050565b806000806101000a81548173ffffffffffffffffffffffffffffffffffffffff021916908373ffffffffffffffffffffffffffffffffffffffff16021790555050565b6000600254905090565b6000600160009054906101000a900473ffffffffffffffffffffffffffffffffffffffff1690508073ffffffffffffffffffffffffffffffffffffffff166313768f5b836040518263ffffffff1660e01b81526004018082815260200191505060206040518083038186803b158015610bc257600080fd5b505afa158015610bd6573d6000803e3d6000fd5b505050506040513d6020811015610bec57600080fd5b810190808051906020019092919050505015610c6e578073ffffffffffffffffffffffffffffffffffffffff1663b0a13843836040518263ffffffff1660e01b815260040180828152602001915050600060405180830381600087803b158015610c5557600080fd5b505af1158015610c69573d6000803e3d6000fd5b505050505b5050565b80600160006101000a81548173ffffffffffffffffffffffffffffffffffffffff021916908373ffffffffffffffffffffffffffffffffffffffff16021790555050565b6002548156fea265627a7a72315820af5e7e3b2b6c57774cb65ca1efd722c7c1850d2666006fe9bfdd7cb87370319a64736f6c63430005100032",
  "source": "pragma solidity >=0.4.24;\r\nimport\"./Claim.sol\";\r\nimport\"./Adjuster.sol\";\r\ncontract Tagency{\r\n    address claim_add;\r\n    address adjuster_add;\r\n    uint public no_of_SubClaims_Out=0;\r\n    function set_claim_add(address x)public\r\n    {\r\n        claim_add=x;\r\n    }\r\n  function set_adjuster_add(address y)public\r\n    {\r\n        adjuster_add=y;\r\n    }\r\n    function set_amount(uint ID,uint amount)public{\r\n        Claim use = Claim(claim_add);\r\n        use.set_amount(ID,amount);\r\n    }\r\n    function transfer(uint x)public{\r\n   \r\n        Claim use1 = Claim(claim_add);\r\n        Adjuster use = Adjuster(use1.detail5(x));\r\n        string memory a;string memory b;\r\n        uint j;\r\n        address i;address o;\r\n        a=use1.detail1(x);\r\n        b=use1.detail2(x);\r\n        j=use1.detail3(x);\r\n        i=use1.detail4(x);\r\n        o=use1.detail5(x);\r\n        string memory p=use1.detail6(x);\r\n         use.recieve_subrogation(a,b,j,i,o,p);\r\n         no_of_SubClaims_Out++;\r\n    }\r\n function accept_Subrogation(uint ID)public{\r\n\r\n      Adjuster use = Adjuster(adjuster_add);\r\n      if(use.Report_check(ID))\r\n      {\r\n         use.accept_subrogation(ID);\r\n      }\r\n    }\r\n    function SubClaims_Out()public view returns(uint)\r\n    {\r\n        return no_of_SubClaims_Out;\r\n    }\r\n}",
  "sourcePath": "C:\\Users\\Ameeth\\test4\\contracts\\Tagency.sol",
  "compiler": {
    "name": "solc",
    "version": "0.5.16+commit.9c3226ce.Emscripten.clang"
  },
  "schemaVersion": "3.4.6",
  "updatedAt": "2022-05-03T06:46:05.098Z",
  "networkType": "ethereum",
  "devdoc": {
    "methods": {}
  },
  "userdoc": {
    "methods": {}
  }
}