{
  "contractName": "User",
  "abi": [
    {
      "constant": true,
      "inputs": [],
      "name": "user_id",
      "outputs": [
        {
          "internalType": "uint256",
          "name": "",
          "type": "uint256"
        }
      ],
      "payable": false,
      "stateMutability": "view",
      "type": "function"
    },
    {
      "constant": false,
      "inputs": [
        {
          "internalType": "address",
          "name": "X",
          "type": "address"
        }
      ],
      "name": "setAdd_policy",
      "outputs": [],
      "payable": false,
      "stateMutability": "nonpayable",
      "type": "function"
    },
    {
      "constant": false,
      "inputs": [
        {
          "internalType": "string",
          "name": "Name",
          "type": "string"
        },
        {
          "internalType": "string",
          "name": "address_",
          "type": "string"
        },
        {
          "internalType": "uint256",
          "name": "Age",
          "type": "uint256"
        }
      ],
      "name": "User_Init",
      "outputs": [],
      "payable": false,
      "stateMutability": "nonpayable",
      "type": "function"
    },
    {
      "constant": false,
      "inputs": [
        {
          "internalType": "uint256",
          "name": "id1",
          "type": "uint256"
        },
        {
          "internalType": "uint256",
          "name": "id2",
          "type": "uint256"
        }
      ],
      "name": "apply_policy",
      "outputs": [],
      "payable": false,
      "stateMutability": "nonpayable",
      "type": "function"
    },
    {
      "constant": true,
      "inputs": [
        {
          "internalType": "uint256",
          "name": "userID",
          "type": "uint256"
        }
      ],
      "name": "show_userP",
      "outputs": [
        {
          "internalType": "string",
          "name": "",
          "type": "string"
        },
        {
          "internalType": "bool",
          "name": "",
          "type": "bool"
        }
      ],
      "payable": false,
      "stateMutability": "view",
      "type": "function"
    },
    {
      "constant": true,
      "inputs": [],
      "name": "get_user_id",
      "outputs": [
        {
          "internalType": "uint256",
          "name": "",
          "type": "uint256"
        }
      ],
      "payable": false,
      "stateMutability": "view",
      "type": "function"
    }
  ],
  "bytecode": "0x60806040526000805534801561001457600080fd5b50610705806100246000396000f3fe608060405234801561001057600080fd5b50600436106100625760003560e01c8063165a109a146100675780631e95f133146101195780632911b0f71461015157806355b9b7e3146102ad5780638c04bedc146102f1578063bb5d88fa1461030f575b600080fd5b6100936004803603602081101561007d57600080fd5b810190808035906020019092919050505061032d565b604051808060200183151515158152602001828103825284818151815260200191508051906020019080838360005b838110156100dd5780820151818401526020810190506100c2565b50505050905090810190601f16801561010a5780820380516001836020036101000a031916815260200191505b50935050505060405180910390f35b61014f6004803603604081101561012f57600080fd5b810190808035906020019092919080359060200190929190505050610410565b005b6102ab6004803603606081101561016757600080fd5b810190808035906020019064010000000081111561018457600080fd5b82018360208201111561019657600080fd5b803590602001918460018302840111640100000000831117156101b857600080fd5b91908080601f016020809104026020016040519081016040528093929190818152602001838380828437600081840152601f19601f8201169050808301925050505050505091929192908035906020019064010000000081111561021b57600080fd5b82018360208201111561022d57600080fd5b8035906020019184600183028401116401000000008311171561024f57600080fd5b91908080601f016020809104026020016040519081016040528093929190818152602001838380828437600081840152601f19601f8201169050808301925050505050505091929192908035906020019092919050505061051e565b005b6102ef600480360360208110156102c357600080fd5b81019080803573ffffffffffffffffffffffffffffffffffffffff1690602001909291905050506105d8565b005b6102f961061c565b6040518082815260200191505060405180910390f35b610317610625565b6040518082815260200191505060405180910390f35b60606000600260008481526020019081526020016000206000016002600085815260200190815260200160002060030160009054906101000a900460ff16818054600181600116156101000203166002900480601f0160208091040260200160405190810160405280929190818152602001828054600181600116156101000203166002900480156104005780601f106103d557610100808354040283529160200191610400565b820191906000526020600020905b8154815290600101906020018083116103e357829003601f168201915b5050505050915091509150915091565b6000600160009054906101000a900473ffffffffffffffffffffffffffffffffffffffff1690508073ffffffffffffffffffffffffffffffffffffffff1663d50936c084846040518363ffffffff1660e01b81526004018083815260200182815260200192505050600060405180830381600087803b15801561049257600080fd5b505af11580156104a6573d6000803e3d6000fd5b5050505060016002600085815260200190815260200160002060030160006101000a81548160ff02191690831515021790555060026000848152602001908152602001600020600401829080600181540180825580915050906001820390600052602060002001600090919290919091505550505050565b6000808154809291906001019190505550826002600080548152602001908152602001600020600001908051906020019061055a92919061062b565b50816002600080548152602001908152602001600020600101908051906020019061058692919061062b565b50806002600080548152602001908152602001600020600201819055506000600260008054815260200190815260200160002060030160006101000a81548160ff021916908315150217905550505050565b80600160006101000a81548173ffffffffffffffffffffffffffffffffffffffff021916908373ffffffffffffffffffffffffffffffffffffffff16021790555050565b60008054905090565b60005481565b828054600181600116156101000203166002900490600052602060002090601f016020900481019282601f1061066c57805160ff191683800117855561069a565b8280016001018555821561069a579182015b8281111561069957825182559160200191906001019061067e565b5b5090506106a791906106ab565b5090565b6106cd91905b808211156106c95760008160009055506001016106b1565b5090565b9056fea265627a7a7231582096ffae55be806bd170351f3193b30d7995d58c843f5cc43bf187f5a6424b3a3d64736f6c63430005100032",
  "source": "pragma solidity >=0.4.24;\r\nimport \"./Policy.sol\";\r\ncontract User{\r\n    uint public user_id=0;\r\n     address policy_add;\r\n    function setAdd_policy(address X)public{\r\n    policy_add=X;\r\n    }\r\n    struct User_i{\r\n  \r\n        string Name;\r\n        string address_;\r\n        uint Age;\r\n        bool Policy_Holder;\r\n        uint[] policies;\r\n        uint[] ins;\r\n    }\r\n    mapping(uint=>User_i) userT;\r\n     function  User_Init(string memory Name,string memory address_,uint Age)public{\r\n        user_id++;\r\n        userT[user_id].Name=Name;\r\n        userT[user_id].address_=address_;\r\n        userT[user_id].Age=Age;\r\n        userT[user_id].Policy_Holder=false;\r\n    }\r\n    function apply_policy(uint id1,uint id2)public{\r\n      Policy use = Policy(policy_add);\r\n      use.Policy_Client_init(id1,id2);\r\n      userT[id1].Policy_Holder=true;\r\n      userT[id1].policies.push(id2);\r\n     // uint x=use.show_ins;\r\n     // userT[id1].ins.push(x);\r\n    }\r\n  \r\n       function show_userP(uint userID)public view returns(string memory,bool)\r\n    {\r\n        return (userT[userID].Name,userT[userID].Policy_Holder);\r\n    }\r\n    function get_user_id() public view returns(uint)\r\n    {\r\n        return user_id;\r\n    }\r\n}",
  "sourcePath": "C:\\Users\\Ameeth\\test4\\contracts\\User.sol",
  "compiler": {
    "name": "solc",
    "version": "0.5.16+commit.9c3226ce.Emscripten.clang"
  },
  "schemaVersion": "3.4.6",
  "updatedAt": "2022-05-03T06:46:05.048Z",
  "networkType": "ethereum",
  "devdoc": {
    "methods": {}
  },
  "userdoc": {
    "methods": {}
  }
}